:100000000C942A000C9447000C9447000C94470071
:100010000C9447000C942D040C9447000C9447005A
:100020000C9447000C9447000C9447000C94470034
:100030000C9447000C9447000C9447000C94470024
:100040000C9447000C9447000C9447000C94470014
:100050000C94470011241FBECFE5D8E0DEBFCDBF12
:1000600012E0A0E6B0E0E8EFF6E102C005900D92E4
:10007000AA37B107D9F722E0AAE7B2E001C01D9282
:10008000A339B207E1F70E945B070C947A0B0C943A
:10009000000088BBDA98D998D89A0000D8988DEEDD
:1000A00092E00197F1F700C0000008958FEF8ABB3E
:1000B00087BB87E893E10197F1F700C0000088E370
:1000C0000E9449008CE00E94490086E00E9449009D
:1000D00081E00E94490080E80C94490088BBDA9ACC
:1000E000D998D89A0000D89889EF90E00197F1F755
:1000F00000C000000895CF93DF93EC01899188231D
:1001000019F00E946E00FACFDF91CF9108954F92BF
:100110005F926F927F928F929F92AF92BF92CF9297
:10012000DF92EF92FF920F931F93CF93DF9300D054
:10013000CDB7DEB74C0180919102909192022BEBEA
:10014000821620E0920669F48130910551F488E02E
:1001500090E0909392028093910281E00E94490086
:1001600004C33DEB831630E0930659F488309105C3
:1001700041F480917C02815087FF16C010927C026E
:10018000F4C22EE4821622E0920689F488309105AA
:1001900009F0BFC080917C02082E000C990B0196DB
:1001A00066E070E00E94730780937C02DEC23BEB46
:1001B000831630E0930631F023E6821622E09206A1
:1001C00009F09EC08830910509F0A9C080917C0299
:1001D0008823A1F08130B1F0823009F1833019F128
:1001E000843059F1E0E0412C512C612C712CB0E0AD
:1001F000A0E0F0E0853021F5E1E022C0E0E07CE91C
:10020000472E03C0E0E06DE8462E55245A9466243C
:100210006A9477247A94BFEFAFEFFFEF11C0E0E864
:1002200051E5452E03C0E0E14EE0442E512C612CF7
:10023000712CB0E0A0E0F0E003C0ECE3412CF6CF7D
:100240003BEB831630E0930651F52E2F342D452DD0
:10025000562D672D7B2F8A2F9F2FA0907D02B09067
:100260007E02C0907F02D0908002E0908102F090E8
:10027000820200918302109184020E943F08209321
:100280007D0230937E0240937F0250938002609300
:10029000810270938202809383029093840283E6AA
:1002A000881682E0980609F060C22E2F342D452D65
:1002B000562D672D7B2F8A2F9F2FA0907D02B09007
:1002C0007E02C0907F02D0908002E0908102F09088
:1002D000820200918302109184020E943F082093C1
:1002E0007D0230937E0240937F02509380026093A0
:1002F000810270938202809383029093840235C2BC
:100300002FEB821620E0920651F48830910539F4E3
:10031000E7C03BEB831630E0930609F04DCF30EF9A
:10032000831630E0930631F58430910589F581E03C
:100330000E94490080E80E9449008091B600823006
:1003400091F482EF90E00E947B0084ED0E944900CE
:1003500080E091E00E947B0083E090E09093920225
:100360008093910202C288E091E00E947B0085E0C8
:1003700090E0F4CF22E1821621E0920649F4843025
:10038000910531F481E00E94490081E090E0E6CFE0
:100390003EE4831632E0930691F48730910579F4B8
:1003A00081E00E94490080E80E94490084E191E0D8
:1003B0000E947B001092920210929102D6C12BEB08
:1003C000821620E0920659F58430910541F581E0CE
:1003D0000E94490080E80E94490084E291E00E9466
:1003E0007B0080EC0E94490083E391E00E947B0047
:1003F00084E90E94490080E491E00E947B0084ED42
:100400000E9449008AE491E00E947B0069EB70E061
:100410008BE892E00E94890887E090E09FCF36E069
:10042000831631E0930609F043C185309105C9F484
:100430008091B60026E08202C00111246BE872E0D0
:100440008C559F4F0E94890881E00E94490080E8F6
:100450000E94490081E591E00E947B0086E090E0E7
:100460002CC08630910571F51091B60036E013026C
:10047000400111246BE872E0C40180589F4F0E9434
:10048000890868EC70E0C4018E569F4F0E9489086D
:100490001F5F1093B60080EC0E94490081E691E056
:1004A0000E947B0084E90E94490080E091E00E9464
:1004B0007B0080E482BB83E090E090939202809383
:1004C000910236C08330910551F023E6821622E076
:1004D000920609F04BC08730910509F041C012BA6D
:1004E00081E00E94490080E80E94490081EC90E090
:1004F0000E947B0080EC0E9449008DEC90E00E94FD
:100500007B0084E90E9449008CED90E00E947B0012
:1005100084ED0E94490089EE90E00E947B0069EB27
:1005200070E08BE892E00E94890884E090E016CFAA
:1005300069EB70E08BE892E00F900F90DF91CF9124
:100540001F910F91FF90EF90DF90CF90BF90AF90F1
:100550009F908F907F906F905F904F900C94890840
:1005600026E0821621E0920609F0A8C0009709F063
:100570004DC010E006E022E0622E712C30E4532ED4
:100580008091B60018178CF51003C00111249C014E
:100590002C553F4F49016BE872E0C9010E94800869
:1005A000892B09F581E00E94490080E80E944900FA
:1005B00081E591E00E947B0069EB70E08BE892E0BE
:1005C0000E948908B40185E892E00E94890870922F
:1005D00092026092910252BA87EA91E60197F1F78E
:1005E00000C0000012BA1F5FCBCF809191029091A2
:1005F0009202892B09F0B9C080E882BB9FE32DE00D
:1006000033E0915020403040E1F74EC082309105F8
:1006100009F089C010E006E080E4782E93E0492ECE
:10062000512C8091B60018177CF51003400111245D
:1006300065E872E0C4018C559F4F0E948008892BA9
:1006400009F56BE872E0C40180589F4F0E94800852
:10065000892BC1F480EC0E9449008DE691E00E9454
:100660007B00C4018E569F4F0E947B0084E90E944C
:10067000490080E091E00E947B0072BA50929202A1
:10068000409291021F5FCDCF809191029091920292
:10069000029709F06AC080E882BB8FE39DE023E007
:1006A000815090402040E1F700C0000012BA5DC0C8
:1006B00033E6831632E0930609F40DCF36E783164E
:1006C00031E09306A9F59C012D7F232B31F09C018D
:1006D000235031092430310558F5EBE8F2E0019060
:1006E0000020E9F73197EB58F2409E2E10E01915E3
:1006F0001CF010E000E20CC080E10E9449001F5F86
:10070000F6CF09831A82CE0101960E947B001F5FFB
:100710001915BCF310E019150CF00ACF80E10E9406
:1007200049001F5FF8CF26E7821621E0920679F292
:100730009C012D7F232B19F004970397B0F49F920F
:100740008F928BE892E09F938F9329E731E03F935C
:100750002F939F938F930E949008C4010E947B0067
:100760000FB6F894DEBF0FBECDBF0F900F90DF9194
:10077000CF911F910F91FF90EF90DF90CF90BF909E
:10078000AF909F908F907F906F905F904F90089563
:100790008FE084BB8FEF85BB08958FE085BB8DEE26
:1007A00092E00197F1F700C0000093B3907F81E0E1
:1007B00009F080E008958FE085BB8DEE92E001970F
:1007C000F1F700C0000083B3807F51F087E893E128
:1007D0000197F1F700C0000093B3907F81E009F426
:1007E00080E00895CF93DF930E94DB03882381F19B
:1007F000E0E6F0E080E090E0C3E2D1E021E030E02C
:10080000A901082E01C0440F0A94EAF745BBADEEDA
:10081000B2E01197F1F700C000009C9B02C0C081BC
:10082000D1819D9B02C0C281D3819E9B02C0C481A5
:10083000D5819F9B02C0C681D781019638968430AE
:100840009105F1F60E94CD038823E1F3CE0102C0A9
:1008500083E291E0DF91CF9108951F920F920FB63E
:100860000F9211242F923F924F925F926F927F923C
:100870008F929F92AF92BF92CF92DF92EF92FF92B0
:100880000F931F932F933F934F935F936F937F9398
:100890008F939F93AF93BF93EF93FF93CF93DF9388
:1008A000CDB7DEB76E97DEBFCDBF80917A02909153
:1008B0007B02019690937B0280937A028D3391059F
:1008C00029F410927B0210927A02CCC2099709F0A7
:1008D000C9C220917D0230917E0240917F025091E9
:1008E00080026091810270918202809183029091D6
:1008F0008402A1E00E94480819012A013B014C0131
:1009000020937D0230927E0240937F0250928002BB
:10091000609381027092820280938302909284029B
:100920008091910290919202019709F0F0C0A0E1AC
:10093000AA2EBEE0BB2EC12CD12CE12CF12C00E064
:1009400010E09101A201B301C4010E94E0072D8BC8
:100950003E8B4F8B588F698F7A8F8B8F9C8FECE3F8
:10096000AE2EB12C0E94E0073F932F932D893E8934
:100970004F89588D698D7A8D8B8D9C8D0E94E207F1
:100980003F932F93F0E8AF2EA1E5BA2E9101A2017B
:10099000B301C4010E94E007B0E1AB2EEEE0BE2E31
:1009A0000E94E2073F932F93E1E09101A201B3017E
:1009B000C40121153D484F4F5F4F6F4F7F4F8F4F01
:1009C0009F4F08F4E0E0A12C5DE8B52ECC24CA943A
:1009D000DD24DA94EE24EA94FF24FA940FEF1FEF5B
:1009E0002E2F30E040E050E060E070E080E090E0EA
:1009F0000E94870759016A017B018C019101A201C4
:100A0000B301C4010E945408E0E8AE2EF1E5BF2E08
:100A1000C12CD12CE12CF12C00E010E00E94E20767
:100A20003F932F93E1E09101A201B301C40121158D
:100A30003C494F4F5F4F6F4F7F4F8F4F9F4F08F491
:100A4000E0E0A12C4CE9B42ECC24CA94DD24DA9445
:100A5000EE24EA94FF24FA940FEF1FEF2E2F30E0DC
:100A600040E050E060E070E080E090E00E948707A6
:100A700059016A017B018C019101A201B301C401FA
:100A80000E945408E1E021153D484F4F5F4F6F4FE2
:100A90007F4F8F4F9F4F08F4E0E01F92EF93E1E00C
:100AA0009101A201B301C40121153C494F4F5F4F91
:100AB0006F4F7F4F8F4F9F4F08F4E0E01F92EF93EF
:100AC0008EE791E09F938F938E010F5F1F4F1F93CF
:100AD0000F930E94900881E00E94490080E80E94E4
:100AE00049008CE991E00E947B0080EC0E94490063
:100AF000C8010E947B0084ED0E94490087EA91E0D2
:100B00000E947B000FB6F894DEBF0FBECDBF809170
:100B1000910290919202089709F0A4C120917D0260
:100B200030917E0240917F0250918002609181025B
:100B3000709182028091830290918402AFEF0E94B3
:100B4000480819013A014B018D8B9E8B20937D0241
:100B500030927E0240937F02709280026093810205
:100B600090928202809383029093840220E1A22ECD
:100B70003EE0B32EC12CD12CE12CF12C00E010E092
:100B800091010E94E0072F8B388F498F5A8F6B8F0E
:100B90007C8F8D8F9E8F80917C02811122C0E1E03D
:100BA0009101A301B4018D899E8921153C494F4FC4
:100BB0005F4F6F4F7F4F8F4F9F4F08F4E0E01F92C2
:100BC000EF938CEB91E09F938F93CE0101969F93CF
:100BD0008F930E9490080F900F900F900F900F909E
:100BE0000F9080917C02813009F04FC0E1E09101CB
:100BF000A301B4018D899E8921153C494F4F5F4F58
:100C00006F4F7F4F8F4F9F4F08F4E0E0A12C0CE90E
:100C1000B02ECC24CA94DD24DA94EE24EA94FF2486
:100C2000FA940FEF1FEF2E2F30E040E050E060E02D
:100C300070E080E090E00E94870759016A017B0123
:100C40008C019101A301B4018D899E890E945408F1
:100C5000E1E021153D484F4F5F4F6F4F7F4F8F4F62
:100C60009F4F08F4E0E01F92EF9380ED91E09F9397
:100C70008F93CE0101969F938F930E9490080F90BF
:100C80000F900F900F900F900F9080917C02823008
:100C900009F050C0E1E09101A301B4018D899E8962
:100CA00021153D484F4F5F4F6F4F7F4F8F4F9F4FE5
:100CB00008F4E0E0A12CADE8BA2ECC24CA94DD24DF
:100CC000DA94EE24EA94FF24FA940FEF1FEF2E2F0C
:100CD00030E040E050E060E070E080E090E00E94B2
:100CE000870759016A017B018C019101A301B401BD
:100CF0008D899E890E945408B0E8AB2E11E5B12E73
:100D0000C12CD12CE12CF12C00E010E00E94E20774
:100D10003F932F9386EE91E09F938F93CE010196A0
:100D20009F938F930E9490080F900F900F900F90B9
:100D30000F900F9080917C029E012F5F3F4F290101
:100D4000833039F520E8A22E31E5B32EC12CD12C09
:100D5000E12CF12C00E010E09101A301B4018D8998
:100D60009E890E94E007E0E1AE2EFEE0BF2E0E94C9
:100D7000E2073F932F938CEF91E09F938F935F92C5
:100D80004F920E9490080F900F900F900F900F902D
:100D90000F9080917C02843019F59CE3A92EB12C30
:100DA000C12CD12CE12CF12C00E010E02F89388DE2
:100DB000498D5A8D6B8D7C8D8D8D9E8D0E94E207A5
:100DC0003F932F9382E192E09F938F935F924F9294
:100DD0000E9490080F900F900F900F900F900F901F
:100DE00080917C02853019F58CE3A82EB12CC12CA2
:100DF000D12CE12CF12C00E010E02F89388D498DA9
:100E00005A8D6B8D7C8D8D8D9E8D0E94E0073F935A
:100E10002F9388E292E09F938F935F924F920E946C
:100E200090080F900F900F900F900F900F9080E808
:100E30000E9449008EE392E00E947B0080EC0E94B9
:100E40004900C2010E947B0084E90E94490080E5BC
:100E500092E00E947B0084ED0E94490085E692E0CA
:100E60000E947B006E960FB6F894DEBF0FBECDBF1A
:100E7000DF91CF91FF91EF91BF91AF919F918F91B2
:100E80007F916F915F914F913F912F911F910F91A2
:100E9000FF90EF90DF90CF90BF90AF909F908F909A
:100EA0007F906F905F904F903F902F900F900FBE6C
:100EB0000F901F9018950E9456000E94C80380E46E
:100EC00089BF84E085BD80EC81BB789484E191E0AA
:100ED0000E947B000E94F20321E083329207D1F34B
:100EE0000E948700F7CF97FB072E16F4009407D0D7
:100EF00077FD09D00E945D0807FC05D03EF490956F
:100F000081959F4F0895709561957F4F0895DF9368
:100F1000CF931F930F939A9DF02D219FF00D8B9DE2
:100F2000F00D8A9DE02DF10D039FF00D029FE00D65
:100F3000F11D4E9DE00DF11D5E9DF00D4F9DF00DDC
:100F40007F936F93BF92AF925F934F93D5010E94AF
:100F500071088B01AC01D7010E947108EB01E80F09
:100F6000F91FD6010E94D7072F913F91D6010E9409
:100F70007108C60FD71FE81FF91FAF91BF910E94DC
:100F8000D7072F913F910E947108C60FD71FE81F06
:100F9000F91FD6010E947108E60FF71F9801BE01E4
:100FA000CF0111240F911F91CF91DF9108950E94DD
:100FB0007108460F571FC81FD91F08F431960895AE
:100FC000689401C0E8948F929F92CF93DF930E9420
:100FD000EE07DF91CF919F908F90089588249924F8
:100FE000F401E401B0E49F93AA279A158B049C04B2
:100FF000ED05FE05CF05D007A10798F4AD2FDC2F36
:10100000CF2FFE2FE92D982C892E982F872F762F02
:10101000652F542F432F322F2227B85031F7BF911D
:1010200027C01B2EBF91BB27220F331F441F551F04
:10103000661F771F881F991F881C991CEE1FFF1FB2
:10104000CC1FDD1FAA1FBB1F8A149B04EC05FD05E6
:10105000CE05DF05A007B10748F08A189B08EC0908
:10106000FD09CE09DF09A00BB10B21601A94E1F64E
:101070002EF49401AF01BE01CD01000C08952A0D9C
:101080003B1D4C1D5D1D6E1D7F1D801F911F089512
:101090000024A7FD00942A0F301D401D501D601D27
:1010A000701D801D901D08952A193B094C095D098A
:1010B0006E097F09800B910B0895AA1BBB1B51E1A0
:1010C00007C0AA1FBB1FA617B70710F0A61BB70BB8
:1010D000881F991F5A95A9F780959095BC01CD015D
:1010E0000895A29FB001B39FC001A39F700D811D01
:1010F0001124911DB29F700D811D1124911D089521
:10110000FB01DC018D91019080190110D9F3990B3D
:101110000895FB01DC0101900D920020E1F7089594
:10112000AEE0B0E0E6E9F8E00C94510B0D891E89C1
:1011300086E08C831A8309838FEF9FE79E838D83DC
:10114000AE01475E5F4F6F89788DCE0101960E9498
:10115000B208EF81F885E00FF11F10822E96E4E0CF
:101160000C946D0BABE0B0E0E8EBF8E00C94430BB3
:101170006C017B018A01FC0117821682838181FF49
:10118000CCC1CE0101963C01F6019381F70193FD9C
:10119000859193FF81917F01882309F4BAC185323B
:1011A00039F493FD859193FF81917F01853229F474
:1011B000B60190E00E94A90AE7CF912C212C312C96
:1011C000FFE1F315D8F08B3279F038F4803279F002
:1011D0008332A1F4232D20611DC08D3261F0803354
:1011E00069F4232D216016C0832D8260382EE32DF3
:1011F000E4603E2E2AC0F32DF8601DC037FC2DC0E0
:1012000020ED280F2A3040F08E32B9F436FC81C12F
:10121000232D2064322E19C036FE06C08AE0989E27
:10122000200D1124922E11C0EAE02E9E200D1124D3
:10123000222EF32DF0623F2E08C08C3621F4832D30
:101240008068382E02C0883641F4F70193FD8591FD
:1012500093FF81917F018111B3CF982F9F7D95548A
:10126000933028F40C5F1F4F9FE399830DC08336A2
:1012700031F0833771F0833509F059C021C0F8018E
:10128000808189830E5F1F4F88248394912C5301A2
:1012900013C02801F2E04F0E511CF801A080B1806C
:1012A00036FE03C0692D70E002C06FEF7FEFC5010D
:1012B0000E949E0A4C018201F32DFF773F2E16C03B
:1012C000280122E0420E511CF801A080B18036FEB8
:1012D00003C0692D70E002C06FEF7FEFC5010E946F
:1012E000930A4C01F32DF0683F2E820133FC1BC0A2
:1012F000822D90E088169906B0F4B60180E290E065
:101300000E94A90A2A94F4CFF50137FC859137FE93
:1013100081915F01B60190E00E94A90A21102A94F0
:1013200021E0821A91088114910471F7E8C0843693
:1013300011F0893641F5F80137FE07C060817181EF
:10134000828193810C5F1F4F08C060817181072EDD
:10135000000C880B990B0E5F1F4FF32DFF763F2E6D
:1013600097FF09C090958095709561957F4F8F4F3D
:101370009F4FF0683F2E2AE030E0A3010E94E50A6B
:10138000882E861845C0853731F4232D2F7EB22E46
:101390002AE030E025C0932D997FB92E8F36C1F019
:1013A00018F4883579F0B5C0803719F0883721F006
:1013B000B0C0E92FE061BE2EB4FE0DC0FB2DF4607D
:1013C000BF2E09C034FE0AC0292F2660B22E06C0E7
:1013D00028E030E005C020E130E002C020E132E04A
:1013E000F801B7FE07C060817181828193810C5F33
:1013F0001F4F06C06081718180E090E00E5F1F4F3B
:10140000A3010E94E50A882E8618FB2DFF773F2E48
:1014100036FE0DC0232D2E7FA22E891458F434FEE3
:101420000BC032FC09C0832D8E7EA82E05C0B82CBF
:10143000A32C03C0B82C01C0B92CA4FE0FC0FE0120
:10144000E80DF11D8081803321F49A2D997EA92E1B
:1014500009C0A2FE06C0B394B39404C08A2D867856
:1014600009F0B394A3FC11C0A0FE06C0B21488F426
:10147000280C922C9B180EC0B21460F4B60180E2C6
:1014800090E00E94A90AB394F7CFB21418F42B1875
:1014900002C0982C212CA4FE10C0B60180E390E07D
:1014A0000E94A90AA2FE17C0A1FC03C088E790E031
:1014B00002C088E590E0B6010CC08A2D867859F00C
:1014C000A1FE02C08BE201C080E2A7FC8DE2B60162
:1014D00090E00E94A90A891438F4B60180E390E0F4
:1014E0000E94A90A9A94F7CF8A94F301E80DF11D9E
:1014F0008081B60190E00E94A90A8110F5CF2220D8
:1015000009F442CEB60180E290E00E94A90A2A9432
:10151000F6CFF6018681978102C08FEF9FEF2B9661
:10152000E2E10C945F0BFC010590615070400110EA
:10153000D8F7809590958E0F9F1F0895FC016150FC
:10154000704001900110D8F7809590958E0F9F1FE5
:1015500008950F931F93CF93DF93FB01238121FD08
:1015600003C08FEF9FEF2CC022FF16C0468157812A
:10157000248135814217530744F4A081B1819D0134
:101580002F5F3F4F318320838C93268137812F5FDC
:101590003F4F3783268314C08B01EC01FB0100848D
:1015A000F185E02D0995892BE1F6D80116968D91EC
:1015B0009C911797019617969C938E931697CE0140
:1015C000DF91CF911F910F910895FA01AA2728303A
:1015D00051F1203181F1E8946F936E7F6E5F7F4F00
:1015E0008F4F9F4FAF4FB1E03ED0B4E03CD0670F7C
:1015F000781F891F9A1FA11D680F791F8A1F911DCF
:10160000A11D6A0F711D811D911DA11D20D009F41E
:1016100068943F912AE0269F11243019305D319360
:10162000DEF6CF010895462F4770405D4193B3E049
:101630000FD0C9F7F6CF462F4F70405D4A3318F0F0
:10164000495D31FD4052419302D0A9F7EACFB4E0A1
:10165000A6959795879577956795BA95C9F7009759
:101660006105710508959B01AC010A2E06945795FA
:10167000479537952795BA95C9F7620F731F841F51
:10168000951FA01D08952F923F924F925F926F92E7
:101690007F928F929F92AF92BF92CF92DF92EF9202
:1016A000FF920F931F93CF93DF93CDB7DEB7CA1B83
:1016B000DB0B0FB6F894DEBF0FBECDBF09942A88AE
:1016C000398848885F846E847D848C849B84AA8456
:1016D000B984C884DF80EE80FD800C811B81AA81E3
:1016E000B981CE0FD11D0FB6F894DEBF0FBECDBFAE
:0816F000ED010895F894FFCF0D
:1016F8006C026E0270027202BD0074024E02BF00DC
:10170800F000760212016302760178020601BB003E
:10171800313233000000000000000000000000002B
:10172800000041646D696E000000000000000000C8
:101738000000000031300000000000000000000040
:10174800000000000000010F0000002B0034002AF8
:1017580000312E20416464205573657200322E20BA
:1017680044656C657465205573657200332E20538B
:10177800686F7720496E666F002B204E657874007D
:1017880031004D656D6F7279204C696D69742E005A
:101798005072657373203D00456E7465722049442C
:1017A8003A003300456E746572205573657220499E
:1017B800643A2000342E205374617274204D6F7483
:1017C8006F7200352E204564697420446174650089
:1017D800362E204C6F676F7574002D204261636B45
:1017E80000456E7465722050617373776F72643A46
:1017F80000557365722041646465642E0057656CFA
:10180800636F6D6520004F4E0025732573002530EA
:1018180034642F253032642F25303264202530324D
:10182800643A253032643A25303264004461746584
:101838002054696D653A005820486F6D65207C20FA
:101848002B20456469742044617465002530346434
:101858002F58582F58582058583A58583A5858001E
:10186800585858582F253032642F58582058583A0D
:1018780058583A585800585858582F58582F253003
:1018880032642058583A58583A58580058585858B6
:101898002F58582F585820253032643A58583A58FB
:1018A8005800585858582F58582F58582058583AB0
:1018B800253032643A585800585858582F58582FDD
:1018C80058582058583A58583A2530326400202041
:1018D8002034203C20437572736F72203E203600FE
:1018E8002B20557020202020207C20202020446F91
:1018F800776E202D005820486F6D6500370038003E
:0A19080039002F00350032003000D6
:00000001FF
