:100000000C942A000C9447000C9447000C94470071
:100010000C9447000C9447000C9447000C94470044
:100020000C9447000C9447000C9447000C94490032
:100030000C9447000C9447000C9447000C94470024
:100040000C9447000C9447000C9447000C94470014
:100050000C94470011241FBECFE5D8E0DEBFCDBF12
:1000600010E0A0E6B0E0E0E3F1E002C005900D9200
:10007000A436B107D9F720E0A4E6B0E001C01D9294
:10008000A836B207E1F70E948B000C9496000C94FE
:1000900000001F920F920FB60F9211248F939F931F
:1000A000EF93FF9380916400909165000196909387
:1000B00065008093640082E882BF80916400909123
:1000C00065000597F9F410926500109264009A9902
:1000D00019C0E0916600F0916700E05AFF4F8081FF
:1000E0008BBB8091660090916700019684309105EA
:1000F00029F0909367008093660004C01092670017
:1001000010926600FF91EF919F918F910F900FBE1B
:100110000F901F90189514BA8FEF8ABB1BBA81E01D
:1001200089BF83B7826083BF7894FFCFF894FFCFF5
:0401300005060A09AD
:00000001FF
