:100000000C942A000C9414010C9447000C944700A3
:100010000C9447000C9487000C9447000C94470004
:100020000C9447000C9447000C9447000C94470034
:100030000C9447000C9447000C9447000C94470024
:100040000C9447000C9447000C9447000C94470014
:100050000C94470011241FBECFE5D8E0DEBFCDBF12
:1000600010E0A0E6B0E0E4E6F9E002C005900D92F1
:10007000A038B107D9F720E0A0E8B0E001C01D9298
:10008000A738B207E1F70E9491010C94B0040C94D8
:10009000000088BBD898D998DA9A0000DA988DEEDB
:1000A00092E00197F1F700C0000008958FEF8ABB3E
:1000B00087BB87E893E10197F1F700C0000088E370
:1000C0000E9449008CE00E94490086E00E9449009D
:1000D00081E00E94490080E80C94490088BBD89ACE
:1000E000D998DA9A0000DA9889EF90E00197F1F751
:1000F00000C000000895CF93DF93EC01899188231D
:1001000019F00E946E00FACFDF91CF9108951F92EF
:100110000F920FB60F9211240F931F932F933F93BB
:100120004F935F936F937F938F939F93AF93BF93FF
:10013000EF93FF93CF93DF93CDB7DEB76497DEBF26
:10014000CDBF8091820090918300019690938300AF
:10015000809382008D33910529F4109283001092D0
:10016000820047C020918400222331F02091850035
:1001700030918600232BE9F10997D9F581E00E949F
:10018000490020918400809185009091860022236F
:1001900071F001979093860080938500009739F461
:1001A00081E085BB80E690E00E947B0022C060E198
:1001B0007EE00E949E019B016CE370E00E949E0124
:1001C0009F938F937F936F933F932F9381E790E05B
:1001D0009F938F938E010F5F1F4F1F930F930E946A
:1001E000C601C8010E947B000FB6F894DEBF0FBEA7
:1001F000CDBF64960FB6F894DEBF0FBECDBFDF91C2
:10020000CF91FF91EF91BF91AF919F918F917F918E
:100210006F915F914F913F912F911F910F910F908F
:100220000FBE0F901F9018951F920F920FB60F924E
:1002300011245F936F937F938F939F93AF93BF939B
:10024000999B21C08091800090918100009739F4A2
:100250008091850090918600805F914F10C0813021
:10026000910531F48091850090918600CC9607C06D
:10027000029749F4809185009091860001969093B1
:100280008600809385009A9B0DC08091800090919C
:100290008100019663E070E00E949E0190938100CE
:1002A000809380009B9B21C0809180009091810071
:1002B000009739F4809185009091860080519E408E
:1002C00010C08130910531F48091850090918600B5
:1002D000CC9707C0029749F48091850090918600E1
:1002E000019790938600809385009C9B0EC080911F
:1002F0008400882339F010928600109285001092B5
:10030000840003C081E080938400BF91AF919F91EE
:100310008F917F916F915F910F900FBE0F901F9003
:1003200018950E94560081E084BB80E489BF94E068
:1003300095BD8BBF83E085BF7894FFCF97FB072ED9
:1003400016F4009407D077FD09D00E94B20107FC93
:1003500005D03EF4909581959F4F089570956195D5
:100360007F4F0895AA1BBB1B51E107C0AA1FBB1FEB
:10037000A617B70710F0A61BB70B881F991F5A9531
:10038000A9F780959095BC01CD010895AEE0B0E04D
:10039000ECECF1E00C9487040D891E8986E08C83D7
:1003A0001A8309838FEF9FE79E838D83AE01475E9B
:1003B0005F4F6F89788DCE0101960E94E801EF8131
:1003C000F885E00FF11F10822E96E4E00C94A30450
:1003D000ABE0B0E0EEEEF1E00C9479046C017B014F
:1003E0008A01FC0117821682838181FFCCC1CE0174
:1003F00001963C01F6019381F70193FD859193FFEE
:1004000081917F01882309F4BAC1853239F493FDC3
:10041000859193FF81917F01853229F4B60190E0A7
:100420000E94DF03E7CF912C212C312CFFE1F31543
:10043000D8F08B3279F038F4803279F08332A1F43D
:10044000232D20611DC08D3261F0803369F4232D8E
:10045000216016C0832D8260382EE32DE4603E2E8D
:100460002AC0F32DF8601DC037FC2DC020ED280FE9
:100470002A3040F08E32B9F436FC81C1232D20643D
:10048000322E19C036FE06C08AE0989E200D112437
:10049000922E11C0EAE02E9E200D1124222EF32D63
:1004A000F0623F2E08C08C3621F4832D8068382EF0
:1004B00002C0883641F4F70193FD859193FF819145
:1004C0007F018111B3CF982F9F7D9554933028F4ED
:1004D0000C5F1F4F9FE399830DC0833631F0833744
:1004E00071F0833509F059C021C0F80180818983FA
:1004F0000E5F1F4F88248394912C530113C0280151
:10050000F2E04F0E511CF801A080B18036FE03C00E
:10051000692D70E002C06FEF7FEFC5010E94D40328
:100520004C018201F32DFF773F2E16C0280122E0F7
:10053000420E511CF801A080B18036FE03C0692D27
:1005400070E002C06FEF7FEFC5010E94C9034C014C
:10055000F32DF0683F2E820133FC1BC0822D90E00A
:1005600088169906B0F4B60180E290E00E94DF039D
:100570002A94F4CFF50137FC859137FE81915F0114
:10058000B60190E00E94DF0321102A9421E0821A34
:1005900091088114910471F7E8C0843611F089360E
:1005A00041F5F80137FE07C0608171818281938136
:1005B0000C5F1F4F08C060817181072E000C880BF3
:1005C000990B0E5F1F4FF32DFF763F2E97FF09C04B
:1005D00090958095709561957F4F8F4F9F4FF068F4
:1005E0003F2E2AE030E0A3010E941B04882E8618CB
:1005F00045C0853731F4232D2F7EB22E2AE030E01E
:1006000025C0932D997FB92E8F36C1F018F4883507
:1006100079F0B5C0803719F0883721F0B0C0E92FE4
:10062000E061BE2EB4FE0DC0FB2DF460BF2E09C0EC
:1006300034FE0AC0292F2660B22E06C028E030E022
:1006400005C020E130E002C020E132E0F801B7FE51
:1006500007C060817181828193810C5F1F4F06C04A
:100660006081718180E090E00E5F1F4FA3010E94C6
:100670001B04882E8618FB2DFF773F2E36FE0DC0FB
:10068000232D2E7FA22E891458F434FE0BC032FC89
:1006900009C0832D8E7EA82E05C0B82CA32C03C0C4
:1006A000B82C01C0B92CA4FE0FC0FE01E80DF11D4D
:1006B0008081803321F49A2D997EA92E09C0A2FE53
:1006C00006C0B394B39404C08A2D867809F0B3941D
:1006D000A3FC11C0A0FE06C0B21488F4280C922C12
:1006E0009B180EC0B21460F4B60180E290E00E9444
:1006F000DF03B394F7CFB21418F42B1802C0982C70
:10070000212CA4FE10C0B60180E390E00E94DF031C
:10071000A2FE17C0A1FC03C088E790E002C088E5F4
:1007200090E0B6010CC08A2D867859F0A1FE02C077
:100730008BE201C080E2A7FC8DE2B60190E00E944E
:10074000DF03891438F4B60180E390E00E94DF03F0
:100750009A94F7CF8A94F301E80DF11D8081B601D8
:1007600090E00E94DF038110F5CF222009F442CEF1
:10077000B60180E290E00E94DF032A94F6CFF601F2
:100780008681978102C08FEF9FEF2B96E2E10C9458
:100790009504FC010590615070400110D8F78095D8
:1007A00090958E0F9F1F0895FC016150704001903D
:1007B0000110D8F7809590958E0F9F1F08950F9385
:1007C0001F93CF93DF93FB01238121FD03C08FEFA4
:1007D0009FEF2CC022FF16C04681578124813581AE
:1007E0004217530744F4A081B1819D012F5F3F4F11
:1007F000318320838C93268137812F5F3F4F37834E
:10080000268314C08B01EC01FB010084F185E02DEF
:100810000995892BE1F6D80116968D919C91179731
:10082000019617969C938E931697CE01DF91CF91E8
:100830001F910F910895FA01AA27283051F1203114
:1008400081F1E8946F936E7F6E5F7F4F8F4F9F4F64
:10085000AF4FB1E03ED0B4E03CD0670F781F891FA6
:100860009A1FA11D680F791F8A1F911DA11D6A0F74
:10087000711D811D911DA11D20D009F468943F9127
:100880002AE0269F11243019305D3193DEF6CF0126
:100890000895462F4770405D4193B3E00FD0C9F7EC
:1008A000F6CF462F4F70405D4A3318F0495D31FD59
:1008B0004052419302D0A9F7EACFB4E0A6959795AC
:1008C000879577956795BA95C9F700976105710582
:1008D00008959B01AC010A2E0694579547953795CC
:1008E0002795BA95C9F7620F731F841F951FA01D26
:1008F00008952F923F924F925F926F927F928F92C4
:100900009F92AF92BF92CF92DF92EF92FF920F939E
:100910001F93CF93DF93CDB7DEB7CA1BDB0B0FB6A8
:10092000F894DEBF0FBECDBF09942A883988488865
:100930005F846E847D848C849B84AA84B984C884FB
:10094000DF80EE80FD800C811B81AA81B981CE0FF2
:10095000D11D0FB6F894DEBF0FBECDBFED010895D7
:04096000F894FFCF39
:100964002120416C61726D2052616973656420219C
:1009740000253032643A253032643A25303264003E
:00000001FF
