:100000000C942A000C9434000C9434000C943400AA
:100010000C9434000C9434000C9434000C94340090
:100020000C9434000C9434000C9434000C94340080
:100030000C9434000C9434000C9434000C94340070
:100040000C9434000C9434000C9434000C94340060
:100050000C94340011241FBECFE5D4E0DEBFCDBF29
:100060000E947A000C9405010C94000088BBD8987B
:10007000D998DA9A82E08A95F1F700C0DA988FE68B
:1000800097E10197F1F700C0000008958FEF8ABB58
:1000900087BB8FE39CE90197F1F700C0000088E37C
:1000A0000E9436008CE00E94360086E00E943600F6
:1000B00081E00E94360080E80C94360088BBD89A14
:1000C000D998DA9A82E08A95F1F700C0DA988FEC35
:1000D00097E00197F1F700C000000895CF93DF93F8
:1000E000EC018991882319F00E945E00FACFDF911C
:1000F000CF910895CF92DF92EF92FF920F931F93CB
:10010000CF93DF93CDB7DEB7C65DD1090FB6F894B4
:10011000DEBF0FBECDBF14BA83B38823E9F387ECEB
:1001200090E00197F1F700C00000A7ECB0E0119754
:10013000F1F700C000008E010F5F1F4F7E01B9EC88
:10014000EB0EF11CF801108280E090E023B3422F07
:10015000417050E09A01082E01C0220F0A94EAF77C
:100160003081232B2083A7ECB0E01197F1F700C07A
:10017000000001968830910549F73196EE15FF058C
:1001800011F70E9446006E01B5ECCB0ED11C4EE07B
:1001900050E0B801C7010E94F60081E00E943600DD
:1001A00080E80E943600C7010E946E002FEF80E7B2
:1001B00092E0215080409040E1F700C00000025FD3
:1001C0001F4FC016D10619F780E090E0CA52DF4FEA
:1001D0000FB6F894DEBF0FBECDBFDF91CF911F9158
:1001E0000F91FF90EF90DF90CF900895FB01DC011D
:1001F0004150504048F001900D920020C9F701C0D5
:0E0200001D9241505040E0F70895F894FFCF52
:00000001FF
