:100000000C942A000C943F000C943F000C943F0089
:100010000C943F000C943F000C943F000C943F0064
:100020000C943F000C943F000C943F000C943F0054
:100030000C943F000C943F000C943F000C943F0044
:100040000C943F000C943F000C943F000C943F0034
:100050000C943F0011241FBECFE5D8E0DEBFCDBF1A
:1000600010E0A0E6B0E0E0E1F1E002C005900D9202
:10007000AC36B107D9F70E947F000C9486000C942F
:10008000000088BBD898D998DA9A0000DA988DEEEB
:1000900092E00197F1F700C0000008958FEF8ABB4E
:1000A00087BB87E893E10197F1F700C0000088E380
:1000B0000E9441008CE00E94410086E00E944100C5
:1000C00081E00E94410080E80C94410088BBD89AEE
:1000D000D998DA9A0000DA9889EF90E00197F1F761
:1000E00000C000000895CF93DF93EC01899188232D
:1000F00019F00E946600FACFDF91CF9108950E9417
:100100004E0080E690E00E947300FFCFF894FFCF8E
:0C01100048656C6C6F20776F726C6400A7
:00000001FF
