:100000000C942A000C9447000C9447000C94470071
:100010000C9447000C9447000C9447000C94470044
:100020000C9447000C94F6000C9447000C94550077
:100030000C9447000C9447000C9447000C94470024
:100040000C9447000C9447000C9447000C94470014
:100050000C94470011241FBECFE5D8E0DEBFCDBF12
:1000600010E0A0E6B0E0EEEBF2E002C005900D92E9
:10007000AA36B107D9F720E0AAE6B0E001C01D9288
:10008000AE36B207E1F70E941F010C945D010C949B
:1000900000008A30910530F4FC01E05AFF4F808166
:1000A00090E0089580E090E008951F920F920FB6BF
:1000B0000F9211242F933F935F936F937F938F93AE
:1000C0009F93AF93BF93EF93FF9320916C00309178
:1000D0006D0021303105F9F024F42115310549F086
:1000E00068C02230310589F12330310509F447C059
:1000F00060C080916A0090916B006AE070E00E949D
:1001000035018A30910520F4FC01E05AFF4F20812F
:1001100022BB87E04DC080916A0090916B002AE07D
:1001200030E0B9010E943501CB01B9010E943501CF
:100130008A30910528F4FC01E05AFF4F808102C00B
:1001400080E090E082BB8BE033C080916A009091A8
:100150006B0064E670E00E943501CB016AE070E05C
:100160000E9435018A30910528F4FC01E05AFF4FC6
:10017000808102C080E090E082BB8DE019C0809158
:100180006A0090916B0068EE73E00E943501CB012C
:100190006AE070E00E9435018A30910528F4FC0184
:1001A000E05AFF4F808102C080E090E082BB8EE089
:1001B00085BB80916C0090916D00019664E070E0C9
:1001C0000E94350190936D0080936C00FF91EF9138
:1001D000BF91AF919F918F917F916F915F913F916F
:1001E0002F910F900FBE0F901F9018951F920F9296
:1001F0000FB60F9211245F936F937F938F939F930A
:10020000AF93BF9380916A0090916B00019660E17B
:1002100077E20E94350190936B0080936A008BED2A
:100220009BE09DBD8CBDBF91AF919F918F917F91C0
:100230006F915F910F900FBE0F901F9018958FE0F8
:1002400084BB8FE781BB15BA8EEF82BF8BED9BE03D
:100250009DBD8CBD8EB582608EBD83B7826083BF2D
:1002600089B7856089BF7894FFCF97FB072E16F476
:10027000009407D077FD09D00E94490107FC05D002
:100280003EF4909581959F4F0895709561957F4FAD
:100290000895AA1BBB1B51E107C0AA1FBB1FA617CD
:1002A000B70710F0A61BB70B881F991F5A95A9F71F
:0E02B00080959095BC01CD010895F894FFCF84
:0A02BE003F065B4F666D7D077FEF82
:00000001FF
