:100000000C942A000C9447000C9447000C94470071
:100010000C9447000C9447000C9447000C94470044
:100020000C9447000C9455000C9447000C94470026
:100030000C9447000C9447000C9447000C94470024
:100040000C9447000C9447000C9447000C94470014
:100050000C94470011241FBECFE5D8E0DEBFCDBF12
:1000600010E0A0E6B0E0E8E9F1E002C005900D92F2
:10007000AA36B107D9F720E0AAE6B0E001C01D9288
:10008000AC36B207E1F70E9491000C94CA000C94C0
:1000900000008A30910530F4FC01E05AFF4F808166
:1000A00090E0089580E090E008951F920F920FB6BF
:1000B0000F9211245F936F937F938F939F93AF93CE
:1000C000BF93EF93FF9380916A0090916B006AE079
:1000D00070E00E94A2008A30910528F4FC01E05AE9
:1000E000FF4F808102C080E090E082BB80916A0077
:1000F00090916B00019690936B0080936A008BED5A
:100100009BE09DBD8CBDFF91EF91BF91AF919F9101
:100110008F917F916F915F910F900FBE0F901F9005
:10012000189581E084BB8FEF81BB15BA8BED9BE006
:100130009DBD8CBD89B7846089BF8EB582608EBD40
:100140007894FFCF97FB072E16F4009407D077FD25
:1001500009D00E94B60007FC05D03EF49095819529
:100160009F4F0895709561957F4F0895AA1BBB1B03
:1001700051E107C0AA1FBB1FA617B70710F0A61BA7
:10018000B70B881F991F5A95A9F780959095BC01C8
:08019000CD010895F894FFCFA2
:0A0198003F065B4F666D7D077FEFA9
:00000001FF
