:100000000C942A000C9434000C9434000C943400AA
:100010000C9434000C9434000C9434000C94340090
:100020000C9434000C9434000C9434000C94340080
:100030000C9434000C9434000C9434000C94340070
:100040000C9434000C9434000C9434000C94340060
:100050000C94340011241FBECFE5D4E0DEBFCDBF29
:100060000E9436000C9463000C9400001ABA8FEFC3
:1000700087BB21E031E0C899FECF88B381110AC067
:1000800038BB4FE986E891E0415080409040E1F76D
:1000900000C0000088B3222311F0880F03C090E055
:1000A0009595879588BB88B3811101C021E0C799D8
:1000B00020E04FE986E891E0415080409040E1F730
:0A00C00000C00000D8CFF894FFCF75
:00000001FF
