:100000000C942A000C9426010C9447000C94470091
:100010000C9447000C9449000C9447000C94470042
:100020000C9447000C9447000C9447000C94BC00BF
:100030000C9447000C9447000C9447000C94470024
:100040000C9447000C9447000C9447000C94470014
:100050000C94470011241FBECFE5D8E0DEBFCDBF12
:1000600010E0A0E6B0E0E2EBF2E002C005900D92F5
:10007000A436B107D9F720E0A4E6B0E001C01D9294
:10008000A037B207E1F70E9446010C9457010C9487
:1000900000001F920F920FB60F9211242F933F93DF
:1000A0004F938F939F9380916A0090916B0001967C
:1000B00090936B0080936A0082E884BD80916A000F
:1000C00090916B008E35914009F04CC010926B00FE
:1000D00010926A008091680090916900892B09F460
:1000E00041C02091660030916700C9018D7F892B46
:1000F000A1F480916400909165008530910514F41D
:10010000019607C02F5F3F4F309367002093660032
:100110000197909365008093640020916600309170
:100120006700C9018D7F0197E9F480916400909187
:1001300065008B3F4FEF940784F42330310529F499
:10014000109267001092660006C02F5F3F4F3093F9
:10015000670020936600019601C0019790936500A7
:10016000809364009F918F914F913F912F910F90B9
:100170000FBE0F901F9018951F920F920FB60F92FF
:1001800011242F933F938F939F93EF93FF9380912D
:100190006C0090916D00019690936D0080936C00BF
:1001A00082E882BF209164003091650085E090E094
:1001B000821B930B20916C0030916D00281739073A
:1001C000D0F110926D0010926C00809168009091B7
:1001D0006900892B81F1E0916E00F0916F00E05A87
:1001E000FF4F80818BBB209166003091670080912A
:1001F0006E0090916F002230310510F4019601C01D
:10020000019790936F0080936E0080916E009091A3
:100210006F00049721F410926F0010926E0080918D
:100220006E0090916F00019631F483E090E090931E
:100230006F0080936E00FF91EF919F918F913F919E
:100240002F910F900FBE0F901F9018951F920F9235
:100250000FB60F9211242F938F939F938091680074
:100260009091690021E08227909369008093680053
:10027000892B21F410926500109264009F918F9158
:100280002F910F900FBE0F901F9018958FEF8ABB84
:100290001BBA81E489BF85B5826085BD83B7826062
:1002A00083BF80E48BBF83E085BF7894FFCFF89451
:0202B000FFCF7E
:0402B20005060A092A
:00000001FF
