:100000000C942A000C94A3000C9447000C94470015
:100010000C9447000C9447000C9447000C94470044
:100020000C9447000C9447000C9447000C94490032
:100030000C9447000C9447000C9447000C94470024
:100040000C9447000C9447000C9447000C94470014
:100050000C94470011241FBECFE5D8E0DEBFCDBF12
:1000600010E0A0E6B0E0EAE9F1E002C005900D92F0
:10007000A436B107D9F720E0A4E6B0E001C01D9294
:10008000AA36B207E1F70E94BD000C94CB000C9495
:1000900000001F920F920FB60F9211242F933F93DF
:1000A0008F939F93EF93FF938091660090916700E9
:1000B0000196909367008093660082E882BF8091EA
:1000C000660090916700059799F51092670010926D
:1000D0006600E0916800F0916900E05AFF4F80816E
:1000E0008BBB2091640030916500809168009091F5
:1000F0006900232B11F4019601C0019790936900C8
:10010000809368008091680090916900049721F4C1
:1001100010926900109268008091680090916900C7
:10012000019631F483E090E0909369008093680039
:10013000FF91EF919F918F913F912F910F900FBE63
:100140000F901F9018951F920F920FB60F921124C7
:100150002F938F939F93809164009091650021E08D
:10016000822790936500809364009F918F912F91D7
:100170000F900FBE0F901F9018958FEF8ABB1BBA80
:1001800081E089BF83B7826083BF80E48BBF83E057
:0A01900085BF7894FFCFF894FFCFED
:04019A0005060A0943
:00000001FF
