:100000000C942A000C943F000C943F000C943F0089
:100010000C943F000C943F000C943F000C943F0064
:100020000C943F000C943F000C943F000C943F0054
:100030000C943F000C943F000C943F000C943F0044
:100040000C943F000C943F000C943F000C943F0034
:100050000C943F0011241FBECFE5D4E0DEBFCDBF1E
:1000600011E0A0E6B0E0E0E8F1E002C005900D92FA
:10007000A832B107D9F70E9441000C94BE000C943D
:1000800000000F931F93CF93DF93CDB7DEB7C85C0B
:10009000D1090FB6F894DEBF0FBECDBF86ECE0E607
:1000A000F0E08E010F5F1F4FD80101900D928A95ED
:1000B000E1F7C953DF4F19821882C75CD04081E055
:1000C00087BB18BAE199FECFF80101900020E9F74B
:1000D0003197AF01401B510B60E070E0C8010E94F6
:1000E000A70081E088BB87EC90E00197F1F700C0A2
:1000F0000000F80180818823D9F020E030E0808181
:10010000082E000C990B022E02C0959587950A9433
:10011000E2F7817088BB87EC90E00197F1F700C0AF
:1001200000002F5F3F4F2830310549F73196E2CF6D
:1001300018BA80E090E0C853DF4F0FB6F894DEBFE6
:100140000FBECDBFDF91CF911F910F910895DC01BC
:10015000CB0103C02D910E94B20041505040D0F716
:100160000895262FE199FECF9FBB8EBB2DBB0FB606
:10017000F894E29AE19A0FBE01960895F894FFCFA1
:100180003132333435206C6F6E6720657374616271
:100190006C69736865642066616374207468617457
:1001A0002061207265616465722077696C6C2062E1
:1001B0006520646973747261637465642062792078
:1001C000746865207265616461626C6520636F6E3E
:1001D00074656E74206F662061207061676520779A
:1001E00068656E206C6F6F6B696E67206174206943
:1001F0007473206C61796F75742E2054686520705B
:100200006F696E74206F66207573696E67204C6F1E
:1002100072656D20497073756D2069732074686113
:1002200074206974206861732061206D6F72652D80
:100230006F722D6C657373206E6F726D616C2064CC
:0802400069737472690000008B
:00000001FF
