:100000000C942A000C9447000C9447000C94870031
:100010000C9447000C9447000C9447000C94470044
:100020000C9447000C9447000C9447000C94470034
:100030000C9447000C9447000C9447000C94470024
:100040000C9447000C9447000C9447000C94470014
:100050000C94470011241FBECFE5D8E0DEBFCDBF12
:1000600010E0A0E6B0E0E2E7F8E002C005900D92F3
:10007000A637B107D9F720E0A6E7B0E001C01D928E
:10008000A837B207E1F70E94D8000C9437040C940B
:10009000000082BBAD98AE98AF9A0000AF988DEE8D
:1000A00092E00197F1F700C0000008958FEF84BB44
:1000B00081BB87E893E10197F1F700C0000088E376
:1000C0000E9449008CE00E94490086E00E9449009D
:1000D00081E00E94490080E80C94490082BBAD9AFF
:1000E000AE98AF9A0000AF9889EF90E00197F1F7D2
:1000F00000C000000895CF93DF93EC01899188231D
:1001000019F00E946E00FACFDF91CF9108951F92EF
:100110000F920FB60F9211242F938F939F93B59B3D
:100120000AC0809176009091770021E08227909319
:100130007700809376008091760090917700892BEC
:1001400061F0B49B16C080916000909161000196AF
:1001500090936100809360000CC0B49B16C08091A6
:100160006200909163000196909363008093620017
:100170000CC0B69B15C08091600090916100019702
:1001800090936100809360000BC0B69B09C0809182
:1001900062009091630001979093630080936200E6
:1001A0009F918F912F910F900FBE0F901F901895D8
:1001B000CF93DF93CDB7DEB764970FB6F894DEBF69
:1001C0000FBECDBF0E94560080E887BB87E886B986
:1001D00080E487B98BB780628BBF84B7806484BFAB
:1001E000789484E6C82E80E0D82E8E010F5F1F4FD2
:1001F00099E6A92E90E0B92E369A349BFECFE4B052
:10020000F5B081E00E94490080E80E944900FF9219
:10021000EF92DF92CF921F930F930E944D01C8017E
:100220000E947B0080EC0E944900809161008F93C6
:10023000809160008F93809163008F938091620022
:100240008F93BF92AF921F930F930E944D01C801ED
:100250000E947B000FB6F894DEBF0FBECDBF809129
:10026000620090916300E816F90614F080E888BBFC
:100270008091620090916300209160003091610054
:10028000821B930B8E159F050CF018BA83E294EF36
:100290000197F1F700C00000AFCFAEE0B0E0E3E5BA
:1002A000F1E00C940E040D891E8986E08C831A837C
:1002B00009838FEF9FE79E838D83AE01475E5F4F7B
:1002C0006F89788DCE0101960E946F01EF81F885CC
:1002D000E00FF11F10822E96E4E00C942A04ABE0AC
:1002E000B0E0E5E7F1E00C9400046C017B018A01C9
:1002F000FC0117821682838181FFCCC1CE01019659
:100300003C01F6019381F70193FD859193FF819163
:100310007F01882309F4BAC1853239F493FD8591B0
:1003200093FF81917F01853229F4B60190E00E940C
:100330006603E7CF912C212C312CFFE1F315D8F087
:100340008B3279F038F4803279F08332A1F4232DA6
:1003500020611DC08D3261F0803369F4232D21604E
:1003600016C0832D8260382EE32DE4603E2E2AC015
:10037000F32DF8601DC037FC2DC020ED280F2A306A
:1003800040F08E32B9F436FC81C1232D2064322E28
:1003900019C036FE06C08AE0989E200D1124922EC8
:1003A00011C0EAE02E9E200D1124222EF32DF062C2
:1003B0003F2E08C08C3621F4832D8068382E02C071
:1003C000883641F4F70193FD859193FF81917F0178
:1003D0008111B3CF982F9F7D9554933028F40C5FF3
:1003E0001F4F9FE399830DC0833631F0833771F03F
:1003F000833509F059C021C0F801808189830E5FDF
:100400001F4F88248394912C530113C02801F2E0DC
:100410004F0E511CF801A080B18036FE03C0692D3B
:1004200070E002C06FEF7FEFC5010E945B034C01DB
:100430008201F32DFF773F2E16C0280122E0420EE5
:10044000511CF801A080B18036FE03C0692D70E018
:1004500002C06FEF7FEFC5010E9450034C01F32DE6
:10046000F0683F2E820133FC1BC0822D90E088167D
:100470009906B0F4B60180E290E00E9466032A94E7
:10048000F4CFF50137FC859137FE81915F01B6010C
:1004900090E00E94660321102A9421E0821A9108BC
:1004A0008114910471F7E8C0843611F0893641F562
:1004B000F80137FE07C060817181828193810C5FF2
:1004C0001F4F08C060817181072E000C880B990BAB
:1004D0000E5F1F4FF32DFF763F2E97FF09C09095BB
:1004E0008095709561957F4F8F4F9F4FF0683F2E9D
:1004F0002AE030E0A3010E94A203882E861845C09E
:10050000853731F4232D2F7EB22E2AE030E025C02E
:10051000932D997FB92E8F36C1F018F4883579F074
:10052000B5C0803719F0883721F0B0C0E92FE061FD
:10053000BE2EB4FE0DC0FB2DF460BF2E09C034FEEC
:100540000AC0292F2660B22E06C028E030E005C080
:1005500020E130E002C020E132E0F801B7FE07C040
:1005600060817181828193810C5F1F4F06C0608121
:10057000718180E090E00E5F1F4FA3010E94A203F3
:10058000882E8618FB2DFF773F2E36FE0DC0232DBB
:100590002E7FA22E891458F434FE0BC032FC09C001
:1005A000832D8E7EA82E05C0B82CA32C03C0B82C9A
:1005B00001C0B92CA4FE0FC0FE01E80DF11D808121
:1005C000803321F49A2D997EA92E09C0A2FE06C07F
:1005D000B394B39404C08A2D867809F0B394A3FC35
:1005E00011C0A0FE06C0B21488F4280C922C9B18EF
:1005F0000EC0B21460F4B60180E290E00E9466037F
:10060000B394F7CFB21418F42B1802C0982C212CF5
:10061000A4FE10C0B60180E390E00E946603A2FE33
:1006200017C0A1FC03C088E790E002C088E590E015
:10063000B6010CC08A2D867859F0A1FE02C08BE26B
:1006400001C080E2A7FC8DE2B60190E00E94660343
:10065000891438F4B60180E390E00E9466039A940E
:10066000F7CF8A94F301E80DF11D8081B60190E087
:100670000E9466038110F5CF222009F442CEB60114
:1006800080E290E00E9466032A94F6CFF60186810C
:10069000978102C08FEF9FEF2B96E2E10C941C0430
:1006A000FC010590615070400110D8F7809590953D
:1006B0008E0F9F1F0895FC01615070400190011042
:1006C000D8F7809590958E0F9F1F08950F931F93D5
:1006D000CF93DF93FB01238121FD03C08FEF9FEFB9
:1006E0002CC022FF16C046815781248135814217D4
:1006F000530744F4A081B1819D012F5F3F4F3183A7
:1007000020838C93268137812F5F3F4F3783268349
:1007100014C08B01EC01FB010084F185E02D0995EB
:10072000892BE1F6D80116968D919C911797019629
:1007300017969C938E931697CE01DF91CF911F91C0
:100740000F910895FA01AA27283051F1203181F143
:10075000E8946F936E7F6E5F7F4F8F4F9F4FAF4FC9
:10076000B1E03ED0B4E03CD0670F781F891F9A1FDC
:10077000A11D680F791F8A1F911DA11D6A0F711D90
:10078000811D911DA11D20D009F468943F912AE09C
:10079000269F11243019305D3193DEF6CF01089584
:1007A000462F4770405D4193B3E00FD0C9F7F6CFB5
:1007B000462F4F70405D4A3318F0495D31FD40527D
:1007C000419302D0A9F7EACFB4E0A6959795879513
:1007D00077956795BA95C9F70097610571050895F2
:1007E0009B01AC010A2E069457954795379527959E
:1007F000BA95C9F7620F731F841F951FA01D089536
:100800002F923F924F925F926F927F928F929F9220
:10081000AF92BF92CF92DF92EF92FF920F931F930E
:10082000CF93DF93CDB7DEB7CA1BDB0B0FB6F894BF
:10083000DEBF0FBECDBF09942A88398848885F84FF
:100840006E847D848C849B84AA84B984C884DF8070
:10085000EE80FD800C811B81AA81B981CE0FD11D54
:100860000FB6F894DEBF0FBECDBFED010895F8942A
:02087000FFCFB8
:100872000500140025642043004D61783A25642C5C
:0608820020483A25640045
:00000001FF
